{
  "contractName": "BusTicketBooking",
  "abi": [
    {
      "anonymous": false,
      "inputs": [
        {
          "indexed": false,
          "internalType": "uint256",
          "name": "id",
          "type": "uint256"
        },
        {
          "indexed": false,
          "internalType": "string",
          "name": "departure",
          "type": "string"
        },
        {
          "indexed": false,
          "internalType": "string",
          "name": "destination",
          "type": "string"
        },
        {
          "indexed": false,
          "internalType": "uint256",
          "name": "departureTime",
          "type": "uint256"
        },
        {
          "indexed": false,
          "internalType": "uint256",
          "name": "ticketPrice",
          "type": "uint256"
        },
        {
          "indexed": false,
          "internalType": "uint256",
          "name": "ticketsAvailable",
          "type": "uint256"
        }
      ],
      "name": "RouteCreated",
      "type": "event"
    },
    {
      "anonymous": false,
      "inputs": [
        {
          "indexed": false,
          "internalType": "uint256",
          "name": "ticketId",
          "type": "uint256"
        },
        {
          "indexed": false,
          "internalType": "uint256",
          "name": "routeId",
          "type": "uint256"
        },
        {
          "indexed": false,
          "internalType": "address",
          "name": "owner",
          "type": "address"
        }
      ],
      "name": "TicketPurchased",
      "type": "event"
    },
    {
      "inputs": [],
      "name": "routeCount",
      "outputs": [
        {
          "internalType": "uint256",
          "name": "",
          "type": "uint256"
        }
      ],
      "stateMutability": "view",
      "type": "function"
    },
    {
      "inputs": [
        {
          "internalType": "uint256",
          "name": "",
          "type": "uint256"
        }
      ],
      "name": "routes",
      "outputs": [
        {
          "internalType": "uint256",
          "name": "id",
          "type": "uint256"
        },
        {
          "internalType": "string",
          "name": "departure",
          "type": "string"
        },
        {
          "internalType": "string",
          "name": "destination",
          "type": "string"
        },
        {
          "internalType": "uint256",
          "name": "departureTime",
          "type": "uint256"
        },
        {
          "internalType": "uint256",
          "name": "ticketPrice",
          "type": "uint256"
        },
        {
          "internalType": "uint256",
          "name": "ticketsAvailable",
          "type": "uint256"
        }
      ],
      "stateMutability": "view",
      "type": "function"
    },
    {
      "inputs": [],
      "name": "ticketCount",
      "outputs": [
        {
          "internalType": "uint256",
          "name": "",
          "type": "uint256"
        }
      ],
      "stateMutability": "view",
      "type": "function"
    },
    {
      "inputs": [
        {
          "internalType": "uint256",
          "name": "",
          "type": "uint256"
        }
      ],
      "name": "tickets",
      "outputs": [
        {
          "internalType": "uint256",
          "name": "id",
          "type": "uint256"
        },
        {
          "internalType": "uint256",
          "name": "routeId",
          "type": "uint256"
        },
        {
          "internalType": "address",
          "name": "owner",
          "type": "address"
        }
      ],
      "stateMutability": "view",
      "type": "function"
    },
    {
      "inputs": [
        {
          "internalType": "address",
          "name": "",
          "type": "address"
        },
        {
          "internalType": "uint256",
          "name": "",
          "type": "uint256"
        }
      ],
      "name": "userTickets",
      "outputs": [
        {
          "internalType": "uint256",
          "name": "",
          "type": "uint256"
        }
      ],
      "stateMutability": "view",
      "type": "function"
    },
    {
      "inputs": [
        {
          "internalType": "string",
          "name": "_departure",
          "type": "string"
        },
        {
          "internalType": "string",
          "name": "_destination",
          "type": "string"
        },
        {
          "internalType": "uint256",
          "name": "_departureTime",
          "type": "uint256"
        },
        {
          "internalType": "uint256",
          "name": "_ticketPrice",
          "type": "uint256"
        },
        {
          "internalType": "uint256",
          "name": "_ticketsAvailable",
          "type": "uint256"
        }
      ],
      "name": "createRoute",
      "outputs": [],
      "stateMutability": "nonpayable",
      "type": "function"
    },
    {
      "inputs": [
        {
          "internalType": "uint256",
          "name": "_routeId",
          "type": "uint256"
        }
      ],
      "name": "bookTicket",
      "outputs": [],
      "stateMutability": "payable",
      "type": "function"
    },
    {
      "inputs": [
        {
          "internalType": "address",
          "name": "_owner",
          "type": "address"
        }
      ],
      "name": "getTickets",
      "outputs": [
        {
          "internalType": "uint256[]",
          "name": "",
          "type": "uint256[]"
        }
      ],
      "stateMutability": "view",
      "type": "function"
    }
  ],
  "bytecode": "0x608060405234801561000f575f80fd5b506112768061001d5f395ff3fe60806040526004361061007a575f3560e01c806379f05ace1161004d57806379f05ace14610155578063bf539cb41461017d578063cf260baf146101a7578063cfbd900f146101e35761007a565b80630ad182bc1461007e5780631c91a65e146100ba57806350b44712146100d6578063726f16d814610114575b5f80fd5b348015610089575f80fd5b506100a4600480360381019061009f9190610860565b61020d565b6040516100b1919061094b565b60405180910390f35b6100d460048036038101906100cf9190610995565b6102a0565b005b3480156100e1575f80fd5b506100fc60048036038101906100f79190610995565b61053f565b60405161010b939291906109de565b60405180910390f35b34801561011f575f80fd5b5061013a60048036038101906101359190610995565b610584565b60405161014c96959493929190610a9d565b60405180910390f35b348015610160575f80fd5b5061017b60048036038101906101769190610c36565b6106c7565b005b348015610188575f80fd5b506101916107be565b60405161019e9190610ce5565b60405180910390f35b3480156101b2575f80fd5b506101cd60048036038101906101c89190610cfe565b6107c4565b6040516101da9190610ce5565b60405180910390f35b3480156101ee575f80fd5b506101f76107ef565b6040516102049190610ce5565b60405180910390f35b606060025f8373ffffffffffffffffffffffffffffffffffffffff1673ffffffffffffffffffffffffffffffffffffffff1681526020019081526020015f2080548060200260200160405190810160405280929190818152602001828054801561029457602002820191905f5260205f20905b815481526020019060010190808311610280575b50505050509050919050565b5f805f8381526020019081526020015f2090505f815f0154036102f8576040517f08c379a00000000000000000000000000000000000000000000000000000000081526004016102ef90610d86565b60405180910390fd5b4281600301541161033e576040517f08c379a000000000000000000000000000000000000000000000000000000000815260040161033590610dee565b60405180910390fd5b80600401543414610384576040517f08c379a000000000000000000000000000000000000000000000000000000000815260040161037b90610e56565b60405180910390fd5b5f8160050154116103ca576040517f08c379a00000000000000000000000000000000000000000000000000000000081526004016103c190610ebe565b60405180910390fd5b806005015f8154809291906103de90610f09565b919050555060045f8154809291906103f590610f30565b9190505550604051806060016040528060045481526020018381526020013373ffffffffffffffffffffffffffffffffffffffff1681525060015f60045481526020019081526020015f205f820151815f0155602082015181600101556040820151816002015f6101000a81548173ffffffffffffffffffffffffffffffffffffffff021916908373ffffffffffffffffffffffffffffffffffffffff16021790555090505060025f3373ffffffffffffffffffffffffffffffffffffffff1673ffffffffffffffffffffffffffffffffffffffff1681526020019081526020015f20600454908060018154018082558091505060019003905f5260205f20015f90919091909150557f94c5953e15f54d38b82a662bdd5739fc91af3a23d3ef7e67269dfaeee71a813c6004548333604051610533939291906109de565b60405180910390a15050565b6001602052805f5260405f205f91509050805f015490806001015490806002015f9054906101000a900473ffffffffffffffffffffffffffffffffffffffff16905083565b5f602052805f5260405f205f91509050805f0154908060010180546105a890610fa4565b80601f01602080910402602001604051908101604052809291908181526020018280546105d490610fa4565b801561061f5780601f106105f65761010080835404028352916020019161061f565b820191905f5260205f20905b81548152906001019060200180831161060257829003601f168201915b50505050509080600201805461063490610fa4565b80601f016020809104026020016040519081016040528092919081815260200182805461066090610fa4565b80156106ab5780601f10610682576101008083540402835291602001916106ab565b820191905f5260205f20905b81548152906001019060200180831161068e57829003601f168201915b5050505050908060030154908060040154908060050154905086565b60035f8154809291906106d990610f30565b91905055506040518060c001604052806003548152602001868152602001858152602001848152602001838152602001828152505f8060035481526020019081526020015f205f820151815f0155602082015181600101908161073c9190611171565b5060408201518160020190816107529190611171565b50606082015181600301556080820151816004015560a082015181600501559050507f674ba3f8d094e1fa23a81260ed5ddfa3dec2c215b412eac96e68ec9c149a6a0b60035486868686866040516107af96959493929190610a9d565b60405180910390a15050505050565b60035481565b6002602052815f5260405f2081815481106107dd575f80fd5b905f5260205f20015f91509150505481565b60045481565b5f604051905090565b5f80fd5b5f80fd5b5f73ffffffffffffffffffffffffffffffffffffffff82169050919050565b5f61082f82610806565b9050919050565b61083f81610825565b8114610849575f80fd5b50565b5f8135905061085a81610836565b92915050565b5f60208284031215610875576108746107fe565b5b5f6108828482850161084c565b91505092915050565b5f81519050919050565b5f82825260208201905092915050565b5f819050602082019050919050565b5f819050919050565b6108c6816108b4565b82525050565b5f6108d783836108bd565b60208301905092915050565b5f602082019050919050565b5f6108f98261088b565b6109038185610895565b935061090e836108a5565b805f5b8381101561093e57815161092588826108cc565b9750610930836108e3565b925050600181019050610911565b5085935050505092915050565b5f6020820190508181035f83015261096381846108ef565b905092915050565b610974816108b4565b811461097e575f80fd5b50565b5f8135905061098f8161096b565b92915050565b5f602082840312156109aa576109a96107fe565b5b5f6109b784828501610981565b91505092915050565b6109c9816108b4565b82525050565b6109d881610825565b82525050565b5f6060820190506109f15f8301866109c0565b6109fe60208301856109c0565b610a0b60408301846109cf565b949350505050565b5f81519050919050565b5f82825260208201905092915050565b5f5b83811015610a4a578082015181840152602081019050610a2f565b5f8484015250505050565b5f601f19601f8301169050919050565b5f610a6f82610a13565b610a798185610a1d565b9350610a89818560208601610a2d565b610a9281610a55565b840191505092915050565b5f60c082019050610ab05f8301896109c0565b8181036020830152610ac28188610a65565b90508181036040830152610ad68187610a65565b9050610ae560608301866109c0565b610af260808301856109c0565b610aff60a08301846109c0565b979650505050505050565b5f80fd5b5f80fd5b7f4e487b71000000000000000000000000000000000000000000000000000000005f52604160045260245ffd5b610b4882610a55565b810181811067ffffffffffffffff82111715610b6757610b66610b12565b5b80604052505050565b5f610b796107f5565b9050610b858282610b3f565b919050565b5f67ffffffffffffffff821115610ba457610ba3610b12565b5b610bad82610a55565b9050602081019050919050565b828183375f83830152505050565b5f610bda610bd584610b8a565b610b70565b905082815260208101848484011115610bf657610bf5610b0e565b5b610c01848285610bba565b509392505050565b5f82601f830112610c1d57610c1c610b0a565b5b8135610c2d848260208601610bc8565b91505092915050565b5f805f805f60a08688031215610c4f57610c4e6107fe565b5b5f86013567ffffffffffffffff811115610c6c57610c6b610802565b5b610c7888828901610c09565b955050602086013567ffffffffffffffff811115610c9957610c98610802565b5b610ca588828901610c09565b9450506040610cb688828901610981565b9350506060610cc788828901610981565b9250506080610cd888828901610981565b9150509295509295909350565b5f602082019050610cf85f8301846109c0565b92915050565b5f8060408385031215610d1457610d136107fe565b5b5f610d218582860161084c565b9250506020610d3285828601610981565b9150509250929050565b7f526f75746520646f6573206e6f742065786973740000000000000000000000005f82015250565b5f610d70601483610a1d565b9150610d7b82610d3c565b602082019050919050565b5f6020820190508181035f830152610d9d81610d64565b9050919050565b7f526f7574652068617320616c72656164792064657061727465640000000000005f82015250565b5f610dd8601a83610a1d565b9150610de382610da4565b602082019050919050565b5f6020820190508181035f830152610e0581610dcc565b9050919050565b7f496e636f7272656374207469636b6574207072696365000000000000000000005f82015250565b5f610e40601683610a1d565b9150610e4b82610e0c565b602082019050919050565b5f6020820190508181035f830152610e6d81610e34565b9050919050565b7f4e6f207469636b65747320617661696c61626c650000000000000000000000005f82015250565b5f610ea8601483610a1d565b9150610eb382610e74565b602082019050919050565b5f6020820190508181035f830152610ed581610e9c565b9050919050565b7f4e487b71000000000000000000000000000000000000000000000000000000005f52601160045260245ffd5b5f610f13826108b4565b91505f8203610f2557610f24610edc565b5b600182039050919050565b5f610f3a826108b4565b91507fffffffffffffffffffffffffffffffffffffffffffffffffffffffffffffffff8203610f6c57610f6b610edc565b5b600182019050919050565b7f4e487b71000000000000000000000000000000000000000000000000000000005f52602260045260245ffd5b5f6002820490506001821680610fbb57607f821691505b602082108103610fce57610fcd610f77565b5b50919050565b5f819050815f5260205f209050919050565b5f6020601f8301049050919050565b5f82821b905092915050565b5f600883026110307fffffffffffffffffffffffffffffffffffffffffffffffffffffffffffffffff82610ff5565b61103a8683610ff5565b95508019841693508086168417925050509392505050565b5f819050919050565b5f61107561107061106b846108b4565b611052565b6108b4565b9050919050565b5f819050919050565b61108e8361105b565b6110a261109a8261107c565b848454611001565b825550505050565b5f90565b6110b66110aa565b6110c1818484611085565b505050565b5b818110156110e4576110d95f826110ae565b6001810190506110c7565b5050565b601f821115611129576110fa81610fd4565b61110384610fe6565b81016020851015611112578190505b61112661111e85610fe6565b8301826110c6565b50505b505050565b5f82821c905092915050565b5f6111495f198460080261112e565b1980831691505092915050565b5f611161838361113a565b9150826002028217905092915050565b61117a82610a13565b67ffffffffffffffff81111561119357611192610b12565b5b61119d8254610fa4565b6111a88282856110e8565b5f60209050601f8311600181146111d9575f84156111c7578287015190505b6111d18582611156565b865550611238565b601f1984166111e786610fd4565b5f5b8281101561120e578489015182556001820191506020850194506020810190506111e9565b8683101561122b5784890151611227601f89168261113a565b8355505b6001600288020188555050505b50505050505056fea26469706673582212207e39059ff7dd96ef96e2849f03cf35b433f5b1a242ac2219c249a7869c76172a64736f6c63430008150033",
  "immutableReferences": {},
  "source": "// SPDX-License-Identifier: MIT\npragma solidity ^0.8.0;\n\ncontract BusTicketBooking {\n    struct BusRoute {\n        uint id;\n        string departure;\n        string destination;\n        uint departureTime;\n        uint ticketPrice;\n        uint ticketsAvailable;\n    }\n\n    struct Ticket {\n        uint id;\n        uint routeId;\n        address owner;\n    }\n\n    mapping(uint => BusRoute) public routes;\n    mapping(uint => Ticket) public tickets;\n    mapping(address => uint[]) public userTickets;\n    \n    uint public routeCount;\n    uint public ticketCount;\n\n    event RouteCreated(uint id, string departure, string destination, uint departureTime, uint ticketPrice, uint ticketsAvailable);\n    event TicketPurchased(uint ticketId, uint routeId, address owner);\n\n    function createRoute(string memory _departure, string memory _destination, uint _departureTime, uint _ticketPrice, uint _ticketsAvailable) public {\n        routeCount++;\n        routes[routeCount] = BusRoute(routeCount, _departure, _destination, _departureTime, _ticketPrice, _ticketsAvailable);\n        emit RouteCreated(routeCount, _departure, _destination, _departureTime, _ticketPrice, _ticketsAvailable);\n    }\n\n    function bookTicket(uint _routeId) public payable {\n        BusRoute storage route = routes[_routeId];\n        require(route.id != 0, \"Route does not exist\");\n        require(route.departureTime > block.timestamp, \"Route has already departed\");\n        require(msg.value == route.ticketPrice, \"Incorrect ticket price\");\n        require(route.ticketsAvailable > 0, \"No tickets available\");\n\n        route.ticketsAvailable--;\n        ticketCount++;\n        tickets[ticketCount] = Ticket(ticketCount, _routeId, msg.sender);\n        userTickets[msg.sender].push(ticketCount);\n\n        emit TicketPurchased(ticketCount, _routeId, msg.sender);\n    }\n\n    function getTickets(address _owner) public view returns (uint[] memory) {\n        return userTickets[_owner];\n    }\n}\n",
  "sourcePath": "/home/dondelice/Projects/Blockchain/VotingSystem/contracts/Ticketing.sol",
  "compiler": {
    "name": "solc",
    "version": "0.8.21+commit.d9974bed.Emscripten.clang"
  },
  "schemaVersion": "3.4.16",
  "updatedAt": "2024-06-27T13:42:55.840Z",
  "devdoc": {
    "kind": "dev",
    "methods": {},
    "version": 1
  },
  "userdoc": {
    "kind": "user",
    "methods": {},
    "version": 1
  }
}