{
  "contractName": "ECommerce",
  "abi": [
    {
      "anonymous": false,
      "inputs": [
        {
          "indexed": false,
          "internalType": "uint256",
          "name": "id",
          "type": "uint256"
        },
        {
          "indexed": false,
          "internalType": "string",
          "name": "name",
          "type": "string"
        },
        {
          "indexed": false,
          "internalType": "uint256",
          "name": "price",
          "type": "uint256"
        },
        {
          "indexed": false,
          "internalType": "address",
          "name": "seller",
          "type": "address"
        }
      ],
      "name": "ProductAdded",
      "type": "event"
    },
    {
      "anonymous": false,
      "inputs": [
        {
          "indexed": false,
          "internalType": "uint256",
          "name": "id",
          "type": "uint256"
        },
        {
          "indexed": false,
          "internalType": "address",
          "name": "buyer",
          "type": "address"
        }
      ],
      "name": "ProductPurchased",
      "type": "event"
    },
    {
      "inputs": [
        {
          "internalType": "uint256",
          "name": "",
          "type": "uint256"
        }
      ],
      "name": "products",
      "outputs": [
        {
          "internalType": "uint256",
          "name": "id",
          "type": "uint256"
        },
        {
          "internalType": "string",
          "name": "name",
          "type": "string"
        },
        {
          "internalType": "uint256",
          "name": "price",
          "type": "uint256"
        },
        {
          "internalType": "address payable",
          "name": "seller",
          "type": "address"
        },
        {
          "internalType": "bool",
          "name": "purchased",
          "type": "bool"
        }
      ],
      "stateMutability": "view",
      "type": "function"
    },
    {
      "inputs": [],
      "name": "productsCount",
      "outputs": [
        {
          "internalType": "uint256",
          "name": "",
          "type": "uint256"
        }
      ],
      "stateMutability": "view",
      "type": "function"
    },
    {
      "inputs": [
        {
          "internalType": "string",
          "name": "_name",
          "type": "string"
        },
        {
          "internalType": "uint256",
          "name": "_price",
          "type": "uint256"
        }
      ],
      "name": "addProduct",
      "outputs": [],
      "stateMutability": "nonpayable",
      "type": "function"
    },
    {
      "inputs": [
        {
          "internalType": "uint256",
          "name": "_id",
          "type": "uint256"
        }
      ],
      "name": "purchaseProduct",
      "outputs": [],
      "stateMutability": "payable",
      "type": "function"
    }
  ],
  "bytecode": "0x608060405234801561000f575f80fd5b50610f9f8061001d5f395ff3fe60806040526004361061003e575f3560e01c806338e76a03146100425780637acc0b201461005e578063b15247d91461009e578063e0df7bb6146100c6575b5f80fd5b61005c600480360381019061005791906106e7565b6100f0565b005b348015610069575f80fd5b50610084600480360381019061007f91906106e7565b61043a565b604051610095959493929190610804565b60405180910390f35b3480156100a9575f80fd5b506100c460048036038101906100bf9190610988565b61051d565b005b3480156100d1575f80fd5b506100da61069d565b6040516100e791906109e2565b60405180910390f35b5f805f8381526020019081526020015f206040518060a00160405290815f820154815260200160018201805461012590610a28565b80601f016020809104026020016040519081016040528092919081815260200182805461015190610a28565b801561019c5780601f106101735761010080835404028352916020019161019c565b820191905f5260205f20905b81548152906001019060200180831161017f57829003601f168201915b5050505050815260200160028201548152602001600382015f9054906101000a900473ffffffffffffffffffffffffffffffffffffffff1673ffffffffffffffffffffffffffffffffffffffff1673ffffffffffffffffffffffffffffffffffffffff1681526020016003820160149054906101000a900460ff16151515158152505090505f815f01511180156102385750600154815f015111155b610277576040517f08c379a000000000000000000000000000000000000000000000000000000000815260040161026e90610aa2565b60405180910390fd5b806040015134146102bd576040517f08c379a00000000000000000000000000000000000000000000000000000000081526004016102b490610b0a565b60405180910390fd5b806080015115610302576040517f08c379a00000000000000000000000000000000000000000000000000000000081526004016102f990610b72565b60405180910390fd5b806060015173ffffffffffffffffffffffffffffffffffffffff166108fc3490811502906040515f60405180830381858888f19350505050158015610349573d5f803e3d5ffd5b506001816080019015159081151581525050805f808481526020019081526020015f205f820151815f015560208201518160010190816103899190610d2d565b50604082015181600201556060820151816003015f6101000a81548173ffffffffffffffffffffffffffffffffffffffff021916908373ffffffffffffffffffffffffffffffffffffffff16021790555060808201518160030160146101000a81548160ff0219169083151502179055509050507f9ad4ecfaf27ea0cbeebee0ed92fe15c8a84975f1e3d45ccfc526d7751dcf98ff823360405161042e929190610e1c565b60405180910390a15050565b5f602052805f5260405f205f91509050805f01549080600101805461045e90610a28565b80601f016020809104026020016040519081016040528092919081815260200182805461048a90610a28565b80156104d55780601f106104ac576101008083540402835291602001916104d5565b820191905f5260205f20905b8154815290600101906020018083116104b857829003601f168201915b505050505090806002015490806003015f9054906101000a900473ffffffffffffffffffffffffffffffffffffffff16908060030160149054906101000a900460ff16905085565b5f811161055f576040517f08c379a000000000000000000000000000000000000000000000000000000000815260040161055690610e8d565b60405180910390fd5b60015f81548092919061057190610ed8565b91905055506040518060a0016040528060015481526020018381526020018281526020013373ffffffffffffffffffffffffffffffffffffffff1681526020015f15158152505f8060015481526020019081526020015f205f820151815f015560208201518160010190816105e69190610d2d565b50604082015181600201556060820151816003015f6101000a81548173ffffffffffffffffffffffffffffffffffffffff021916908373ffffffffffffffffffffffffffffffffffffffff16021790555060808201518160030160146101000a81548160ff0219169083151502179055509050507f52402cafb2ecec722b103e8f203f83362148c168659dc96678c2c6850d12dd9f6001548383336040516106919493929190610f1f565b60405180910390a15050565b60015481565b5f604051905090565b5f80fd5b5f80fd5b5f819050919050565b6106c6816106b4565b81146106d0575f80fd5b50565b5f813590506106e1816106bd565b92915050565b5f602082840312156106fc576106fb6106ac565b5b5f610709848285016106d3565b91505092915050565b61071b816106b4565b82525050565b5f81519050919050565b5f82825260208201905092915050565b5f5b8381101561075857808201518184015260208101905061073d565b5f8484015250505050565b5f601f19601f8301169050919050565b5f61077d82610721565b610787818561072b565b935061079781856020860161073b565b6107a081610763565b840191505092915050565b5f73ffffffffffffffffffffffffffffffffffffffff82169050919050565b5f6107d4826107ab565b9050919050565b6107e4816107ca565b82525050565b5f8115159050919050565b6107fe816107ea565b82525050565b5f60a0820190506108175f830188610712565b81810360208301526108298187610773565b90506108386040830186610712565b61084560608301856107db565b61085260808301846107f5565b9695505050505050565b5f80fd5b5f80fd5b7f4e487b71000000000000000000000000000000000000000000000000000000005f52604160045260245ffd5b61089a82610763565b810181811067ffffffffffffffff821117156108b9576108b8610864565b5b80604052505050565b5f6108cb6106a3565b90506108d78282610891565b919050565b5f67ffffffffffffffff8211156108f6576108f5610864565b5b6108ff82610763565b9050602081019050919050565b828183375f83830152505050565b5f61092c610927846108dc565b6108c2565b90508281526020810184848401111561094857610947610860565b5b61095384828561090c565b509392505050565b5f82601f83011261096f5761096e61085c565b5b813561097f84826020860161091a565b91505092915050565b5f806040838503121561099e5761099d6106ac565b5b5f83013567ffffffffffffffff8111156109bb576109ba6106b0565b5b6109c78582860161095b565b92505060206109d8858286016106d3565b9150509250929050565b5f6020820190506109f55f830184610712565b92915050565b7f4e487b71000000000000000000000000000000000000000000000000000000005f52602260045260245ffd5b5f6002820490506001821680610a3f57607f821691505b602082108103610a5257610a516109fb565b5b50919050565b7f50726f6475637420646f6573206e6f74206578697374000000000000000000005f82015250565b5f610a8c60168361072b565b9150610a9782610a58565b602082019050919050565b5f6020820190508181035f830152610ab981610a80565b9050919050565b7f496e636f72726563742076616c75652073656e740000000000000000000000005f82015250565b5f610af460148361072b565b9150610aff82610ac0565b602082019050919050565b5f6020820190508181035f830152610b2181610ae8565b9050919050565b7f50726f6475637420616c726561647920707572636861736564000000000000005f82015250565b5f610b5c60198361072b565b9150610b6782610b28565b602082019050919050565b5f6020820190508181035f830152610b8981610b50565b9050919050565b5f819050815f5260205f209050919050565b5f6020601f8301049050919050565b5f82821b905092915050565b5f60088302610bec7fffffffffffffffffffffffffffffffffffffffffffffffffffffffffffffffff82610bb1565b610bf68683610bb1565b95508019841693508086168417925050509392505050565b5f819050919050565b5f610c31610c2c610c27846106b4565b610c0e565b6106b4565b9050919050565b5f819050919050565b610c4a83610c17565b610c5e610c5682610c38565b848454610bbd565b825550505050565b5f90565b610c72610c66565b610c7d818484610c41565b505050565b5b81811015610ca057610c955f82610c6a565b600181019050610c83565b5050565b601f821115610ce557610cb681610b90565b610cbf84610ba2565b81016020851015610cce578190505b610ce2610cda85610ba2565b830182610c82565b50505b505050565b5f82821c905092915050565b5f610d055f1984600802610cea565b1980831691505092915050565b5f610d1d8383610cf6565b9150826002028217905092915050565b610d3682610721565b67ffffffffffffffff811115610d4f57610d4e610864565b5b610d598254610a28565b610d64828285610ca4565b5f60209050601f831160018114610d95575f8415610d83578287015190505b610d8d8582610d12565b865550610df4565b601f198416610da386610b90565b5f5b82811015610dca57848901518255600182019150602085019450602081019050610da5565b86831015610de75784890151610de3601f891682610cf6565b8355505b6001600288020188555050505b505050505050565b5f610e06826107ab565b9050919050565b610e1681610dfc565b82525050565b5f604082019050610e2f5f830185610712565b610e3c6020830184610e0d565b9392505050565b7f5072696365206d7573742062652067726561746572207468616e207a65726f005f82015250565b5f610e77601f8361072b565b9150610e8282610e43565b602082019050919050565b5f6020820190508181035f830152610ea481610e6b565b9050919050565b7f4e487b71000000000000000000000000000000000000000000000000000000005f52601160045260245ffd5b5f610ee2826106b4565b91507fffffffffffffffffffffffffffffffffffffffffffffffffffffffffffffffff8203610f1457610f13610eab565b5b600182019050919050565b5f608082019050610f325f830187610712565b8181036020830152610f448186610773565b9050610f536040830185610712565b610f606060830184610e0d565b9594505050505056fea26469706673582212205ac342531f3c0350e1facc628b058f74883bcbc56ea7d06453f15e32118feb7d64736f6c63430008150033",
  "immutableReferences": {},
  "source": "// SPDX-License-Identifier: MIT\npragma solidity ^0.8.0;\n\ncontract ECommerce {\n    struct Product {\n        uint id;\n        string name;\n        uint price;\n        address payable seller;\n        bool purchased;\n    }\n\n    mapping(uint => Product) public products;\n    uint public productsCount;\n\n    event ProductAdded(uint id, string name, uint price, address seller);\n    event ProductPurchased(uint id, address buyer);\n\n    function addProduct(string memory _name, uint _price) public {\n        require(_price > 0, \"Price must be greater than zero\");\n\n        productsCount++;\n        products[productsCount] = Product(productsCount, _name, _price, payable(msg.sender), false);\n        emit ProductAdded(productsCount, _name, _price, msg.sender);\n    }\n\n    function purchaseProduct(uint _id) public payable {\n        Product memory product = products[_id];\n        require(product.id > 0 && product.id <= productsCount, \"Product does not exist\");\n        require(msg.value == product.price, \"Incorrect value sent\");\n        require(!product.purchased, \"Product already purchased\");\n\n        product.seller.transfer(msg.value);\n        product.purchased = true;\n        products[_id] = product;\n\n        emit ProductPurchased(_id, msg.sender);\n    }\n}\n",
  "sourcePath": "/home/dondelice/Projects/Blockchain/VotingSystem/contracts/BlockTrade.sol",
  "compiler": {
    "name": "solc",
    "version": "0.8.21+commit.d9974bed.Emscripten.clang"
  },
  "schemaVersion": "3.4.16",
  "updatedAt": "2024-06-27T13:42:55.802Z",
  "devdoc": {
    "kind": "dev",
    "methods": {},
    "version": 1
  },
  "userdoc": {
    "kind": "user",
    "methods": {},
    "version": 1
  }
}