{
  "contractName": "HospitalManagement",
  "abi": [
    {
      "anonymous": false,
      "inputs": [
        {
          "indexed": false,
          "internalType": "uint256",
          "name": "id",
          "type": "uint256"
        },
        {
          "indexed": false,
          "internalType": "string",
          "name": "name",
          "type": "string"
        },
        {
          "indexed": false,
          "internalType": "string",
          "name": "specialty",
          "type": "string"
        }
      ],
      "name": "DoctorAdded",
      "type": "event"
    },
    {
      "anonymous": false,
      "inputs": [
        {
          "indexed": false,
          "internalType": "uint256",
          "name": "id",
          "type": "uint256"
        },
        {
          "indexed": false,
          "internalType": "string",
          "name": "name",
          "type": "string"
        },
        {
          "indexed": false,
          "internalType": "uint256",
          "name": "age",
          "type": "uint256"
        },
        {
          "indexed": false,
          "internalType": "string",
          "name": "medicalHistory",
          "type": "string"
        }
      ],
      "name": "PatientAdded",
      "type": "event"
    },
    {
      "inputs": [
        {
          "internalType": "uint256",
          "name": "",
          "type": "uint256"
        }
      ],
      "name": "doctors",
      "outputs": [
        {
          "internalType": "uint256",
          "name": "id",
          "type": "uint256"
        },
        {
          "internalType": "string",
          "name": "name",
          "type": "string"
        },
        {
          "internalType": "string",
          "name": "specialty",
          "type": "string"
        }
      ],
      "stateMutability": "view",
      "type": "function"
    },
    {
      "inputs": [],
      "name": "doctorsCount",
      "outputs": [
        {
          "internalType": "uint256",
          "name": "",
          "type": "uint256"
        }
      ],
      "stateMutability": "view",
      "type": "function"
    },
    {
      "inputs": [
        {
          "internalType": "uint256",
          "name": "",
          "type": "uint256"
        }
      ],
      "name": "patients",
      "outputs": [
        {
          "internalType": "uint256",
          "name": "id",
          "type": "uint256"
        },
        {
          "internalType": "string",
          "name": "name",
          "type": "string"
        },
        {
          "internalType": "uint256",
          "name": "age",
          "type": "uint256"
        },
        {
          "internalType": "string",
          "name": "medicalHistory",
          "type": "string"
        }
      ],
      "stateMutability": "view",
      "type": "function"
    },
    {
      "inputs": [],
      "name": "patientsCount",
      "outputs": [
        {
          "internalType": "uint256",
          "name": "",
          "type": "uint256"
        }
      ],
      "stateMutability": "view",
      "type": "function"
    },
    {
      "inputs": [
        {
          "internalType": "address",
          "name": "",
          "type": "address"
        }
      ],
      "name": "registeredDoctors",
      "outputs": [
        {
          "internalType": "bool",
          "name": "",
          "type": "bool"
        }
      ],
      "stateMutability": "view",
      "type": "function"
    },
    {
      "inputs": [
        {
          "internalType": "string",
          "name": "_name",
          "type": "string"
        },
        {
          "internalType": "string",
          "name": "_specialty",
          "type": "string"
        }
      ],
      "name": "addDoctor",
      "outputs": [],
      "stateMutability": "nonpayable",
      "type": "function"
    },
    {
      "inputs": [
        {
          "internalType": "string",
          "name": "_name",
          "type": "string"
        },
        {
          "internalType": "uint256",
          "name": "_age",
          "type": "uint256"
        },
        {
          "internalType": "string",
          "name": "_medicalHistory",
          "type": "string"
        }
      ],
      "name": "addPatient",
      "outputs": [],
      "stateMutability": "nonpayable",
      "type": "function"
    },
    {
      "inputs": [
        {
          "internalType": "uint256",
          "name": "_patientId",
          "type": "uint256"
        }
      ],
      "name": "viewPatient",
      "outputs": [
        {
          "internalType": "string",
          "name": "",
          "type": "string"
        },
        {
          "internalType": "uint256",
          "name": "",
          "type": "uint256"
        },
        {
          "internalType": "string",
          "name": "",
          "type": "string"
        }
      ],
      "stateMutability": "view",
      "type": "function"
    }
  ],
  "bytecode": "0x608060405234801561000f575f80fd5b506111cb8061001d5f395ff3fe608060405234801561000f575f80fd5b5060043610610086575f3560e01c806393119a831161005957806393119a831461013c578063b6b1289d1461016f578063d65da44a1461018d578063dc093978146101a957610086565b806304bb9bc01461008a5780633f308cd2146100a8578063596b6ed7146100d85780636efb1b841461010a575b5f80fd5b6100926101c5565b60405161009f91906108a0565b60405180910390f35b6100c260048036038101906100bd9190610924565b6101cb565b6040516100cf9190610969565b60405180910390f35b6100f260048036038101906100ed91906109ac565b6101e8565b60405161010193929190610a61565b60405180910390f35b610124600480360381019061011f91906109ac565b6103ab565b60405161013393929190610aa4565b60405180910390f35b610156600480360381019061015191906109ac565b6104dd565b6040516101669493929190610ae7565b60405180910390f35b610177610614565b60405161018491906108a0565b60405180910390f35b6101a760048036038101906101a29190610c64565b61061a565b005b6101c360048036038101906101be9190610cec565b610774565b005b60045481565b6002602052805f5260405f205f915054906101000a900460ff1681565b60605f60605f841180156101fe57506003548411155b61023d576040517f08c379a000000000000000000000000000000000000000000000000000000000815260040161023490610dac565b60405180910390fd5b5f805f8681526020019081526020015f206040518060800160405290815f820154815260200160018201805461027290610df7565b80601f016020809104026020016040519081016040528092919081815260200182805461029e90610df7565b80156102e95780601f106102c0576101008083540402835291602001916102e9565b820191905f5260205f20905b8154815290600101906020018083116102cc57829003601f168201915b505050505081526020016002820154815260200160038201805461030c90610df7565b80601f016020809104026020016040519081016040528092919081815260200182805461033890610df7565b80156103835780601f1061035a57610100808354040283529160200191610383565b820191905f5260205f20905b81548152906001019060200180831161036657829003601f168201915b5050505050815250509050806020015181604001518260600151935093509350509193909250565b6001602052805f5260405f205f91509050805f0154908060010180546103d090610df7565b80601f01602080910402602001604051908101604052809291908181526020018280546103fc90610df7565b80156104475780601f1061041e57610100808354040283529160200191610447565b820191905f5260205f20905b81548152906001019060200180831161042a57829003601f168201915b50505050509080600201805461045c90610df7565b80601f016020809104026020016040519081016040528092919081815260200182805461048890610df7565b80156104d35780601f106104aa576101008083540402835291602001916104d3565b820191905f5260205f20905b8154815290600101906020018083116104b657829003601f168201915b5050505050905083565b5f602052805f5260405f205f91509050805f01549080600101805461050190610df7565b80601f016020809104026020016040519081016040528092919081815260200182805461052d90610df7565b80156105785780601f1061054f57610100808354040283529160200191610578565b820191905f5260205f20905b81548152906001019060200180831161055b57829003601f168201915b50505050509080600201549080600301805461059390610df7565b80601f01602080910402602001604051908101604052809291908181526020018280546105bf90610df7565b801561060a5780601f106105e15761010080835404028352916020019161060a565b820191905f5260205f20905b8154815290600101906020018083116105ed57829003601f168201915b5050505050905084565b60035481565b60025f3373ffffffffffffffffffffffffffffffffffffffff1673ffffffffffffffffffffffffffffffffffffffff1681526020019081526020015f205f9054906101000a900460ff166106a3576040517f08c379a000000000000000000000000000000000000000000000000000000000815260040161069a90610e97565b60405180910390fd5b60035f8154809291906106b590610ee2565b919050555060405180608001604052806003548152602001848152602001838152602001828152505f8060035481526020019081526020015f205f820151815f0155602082015181600101908161070c91906110c6565b5060408201518160020155606082015181600301908161072c91906110c6565b509050507f59c78db594ca49e2093cf34d51acd71ea2d54ba4f385bafb43960369b64ce6df6003548484846040516107679493929190610ae7565b60405180910390a1505050565b60045f81548092919061078690610ee2565b9190505550604051806060016040528060045481526020018381526020018281525060015f60045481526020019081526020015f205f820151815f015560208201518160010190816107d891906110c6565b5060408201518160020190816107ee91906110c6565b50905050600160025f3373ffffffffffffffffffffffffffffffffffffffff1673ffffffffffffffffffffffffffffffffffffffff1681526020019081526020015f205f6101000a81548160ff0219169083151502179055507f9b2b6a6c770405d80eab4300682f7deab2d34c7e49d9c04f7b8f4d780a2b6806600454838360405161087c93929190610aa4565b60405180910390a15050565b5f819050919050565b61089a81610888565b82525050565b5f6020820190506108b35f830184610891565b92915050565b5f604051905090565b5f80fd5b5f80fd5b5f73ffffffffffffffffffffffffffffffffffffffff82169050919050565b5f6108f3826108ca565b9050919050565b610903816108e9565b811461090d575f80fd5b50565b5f8135905061091e816108fa565b92915050565b5f60208284031215610939576109386108c2565b5b5f61094684828501610910565b91505092915050565b5f8115159050919050565b6109638161094f565b82525050565b5f60208201905061097c5f83018461095a565b92915050565b61098b81610888565b8114610995575f80fd5b50565b5f813590506109a681610982565b92915050565b5f602082840312156109c1576109c06108c2565b5b5f6109ce84828501610998565b91505092915050565b5f81519050919050565b5f82825260208201905092915050565b5f5b83811015610a0e5780820151818401526020810190506109f3565b5f8484015250505050565b5f601f19601f8301169050919050565b5f610a33826109d7565b610a3d81856109e1565b9350610a4d8185602086016109f1565b610a5681610a19565b840191505092915050565b5f6060820190508181035f830152610a798186610a29565b9050610a886020830185610891565b8181036040830152610a9a8184610a29565b9050949350505050565b5f606082019050610ab75f830186610891565b8181036020830152610ac98185610a29565b90508181036040830152610add8184610a29565b9050949350505050565b5f608082019050610afa5f830187610891565b8181036020830152610b0c8186610a29565b9050610b1b6040830185610891565b8181036060830152610b2d8184610a29565b905095945050505050565b5f80fd5b5f80fd5b7f4e487b71000000000000000000000000000000000000000000000000000000005f52604160045260245ffd5b610b7682610a19565b810181811067ffffffffffffffff82111715610b9557610b94610b40565b5b80604052505050565b5f610ba76108b9565b9050610bb38282610b6d565b919050565b5f67ffffffffffffffff821115610bd257610bd1610b40565b5b610bdb82610a19565b9050602081019050919050565b828183375f83830152505050565b5f610c08610c0384610bb8565b610b9e565b905082815260208101848484011115610c2457610c23610b3c565b5b610c2f848285610be8565b509392505050565b5f82601f830112610c4b57610c4a610b38565b5b8135610c5b848260208601610bf6565b91505092915050565b5f805f60608486031215610c7b57610c7a6108c2565b5b5f84013567ffffffffffffffff811115610c9857610c976108c6565b5b610ca486828701610c37565b9350506020610cb586828701610998565b925050604084013567ffffffffffffffff811115610cd657610cd56108c6565b5b610ce286828701610c37565b9150509250925092565b5f8060408385031215610d0257610d016108c2565b5b5f83013567ffffffffffffffff811115610d1f57610d1e6108c6565b5b610d2b85828601610c37565b925050602083013567ffffffffffffffff811115610d4c57610d4b6108c6565b5b610d5885828601610c37565b9150509250929050565b7f496e76616c69642070617469656e7420494400000000000000000000000000005f82015250565b5f610d966012836109e1565b9150610da182610d62565b602082019050919050565b5f6020820190508181035f830152610dc381610d8a565b9050919050565b7f4e487b71000000000000000000000000000000000000000000000000000000005f52602260045260245ffd5b5f6002820490506001821680610e0e57607f821691505b602082108103610e2157610e20610dca565b5b50919050565b7f4f6e6c79207265676973746572656420646f63746f72732063616e20616464205f8201527f70617469656e7473000000000000000000000000000000000000000000000000602082015250565b5f610e816028836109e1565b9150610e8c82610e27565b604082019050919050565b5f6020820190508181035f830152610eae81610e75565b9050919050565b7f4e487b71000000000000000000000000000000000000000000000000000000005f52601160045260245ffd5b5f610eec82610888565b91507fffffffffffffffffffffffffffffffffffffffffffffffffffffffffffffffff8203610f1e57610f1d610eb5565b5b600182019050919050565b5f819050815f5260205f209050919050565b5f6020601f8301049050919050565b5f82821b905092915050565b5f60088302610f857fffffffffffffffffffffffffffffffffffffffffffffffffffffffffffffffff82610f4a565b610f8f8683610f4a565b95508019841693508086168417925050509392505050565b5f819050919050565b5f610fca610fc5610fc084610888565b610fa7565b610888565b9050919050565b5f819050919050565b610fe383610fb0565b610ff7610fef82610fd1565b848454610f56565b825550505050565b5f90565b61100b610fff565b611016818484610fda565b505050565b5b818110156110395761102e5f82611003565b60018101905061101c565b5050565b601f82111561107e5761104f81610f29565b61105884610f3b565b81016020851015611067578190505b61107b61107385610f3b565b83018261101b565b50505b505050565b5f82821c905092915050565b5f61109e5f1984600802611083565b1980831691505092915050565b5f6110b6838361108f565b9150826002028217905092915050565b6110cf826109d7565b67ffffffffffffffff8111156110e8576110e7610b40565b5b6110f28254610df7565b6110fd82828561103d565b5f60209050601f83116001811461112e575f841561111c578287015190505b61112685826110ab565b86555061118d565b601f19841661113c86610f29565b5f5b828110156111635784890151825560018201915060208501945060208101905061113e565b86831015611180578489015161117c601f89168261108f565b8355505b6001600288020188555050505b50505050505056fea26469706673582212201eb86393f059692405c630c5a5cd83848818e3bc6b14937ca329799326ba54d364736f6c63430008150033",
  "immutableReferences": {},
  "source": "// SPDX-License-Identifier: MIT\npragma solidity ^0.8.0;\n\ncontract HospitalManagement {\n    struct Patient {\n        uint id;\n        string name;\n        uint age;\n        string medicalHistory;\n    }\n\n    struct Doctor {\n        uint id;\n        string name;\n        string specialty;\n    }\n\n    mapping(uint => Patient) public patients;\n    mapping(uint => Doctor) public doctors;\n    mapping(address => bool) public registeredDoctors;\n\n    uint public patientsCount;\n    uint public doctorsCount;\n\n    event DoctorAdded(uint id, string name, string specialty);\n    event PatientAdded(uint id, string name, uint age, string medicalHistory);\n\n    function addDoctor(string memory _name, string memory _specialty) public {\n        doctorsCount++;\n        doctors[doctorsCount] = Doctor(doctorsCount, _name, _specialty);\n        registeredDoctors[msg.sender] = true;\n        emit DoctorAdded(doctorsCount, _name, _specialty);\n    }\n\n    function addPatient(string memory _name, uint _age, string memory _medicalHistory) public {\n        require(registeredDoctors[msg.sender], \"Only registered doctors can add patients\");\n\n        patientsCount++;\n        patients[patientsCount] = Patient(patientsCount, _name, _age, _medicalHistory);\n        emit PatientAdded(patientsCount, _name, _age, _medicalHistory);\n    }\n\n    function viewPatient(uint _patientId) public view returns (string memory, uint, string memory) {\n        require(_patientId > 0 && _patientId <= patientsCount, \"Invalid patient ID\");\n        \n        Patient memory patient = patients[_patientId];\n        return (patient.name, patient.age, patient.medicalHistory);\n    }\n}\n",
  "sourcePath": "/home/dondelice/Projects/Blockchain/VotingSystem/contracts/Hopital.sol",
  "compiler": {
    "name": "solc",
    "version": "0.8.21+commit.d9974bed.Emscripten.clang"
  },
  "schemaVersion": "3.4.16",
  "updatedAt": "2024-06-27T13:42:55.822Z",
  "devdoc": {
    "kind": "dev",
    "methods": {},
    "version": 1
  },
  "userdoc": {
    "kind": "user",
    "methods": {},
    "version": 1
  }
}